:1000000012C019C018C017C016C015C014C013C044
:1000100012C011C010C00FC00EC00DC00CC00BC06C
:100020000AC009C008C011241FBECFE5D4E0DEBF5E
:10003000CDBF06D03AC0E4CF8FEF87BB81BB089518
:100040008FEF87BB81BB20E04AEC50E0C09A9198CB
:1000500032B3CA01022E02C0959587950A94E2F741
:1000600081709927880F991F832B82BB00000000A5
:10007000000000000000909A3FEF84E694E03150C9
:1000800080409040E1F700C00000C09890982F5F3A
:10009000283008F020E03FEF84E694E031508040C3
:0E00A0009040E1F700C00000D1CFF894FFCFF0
:00000001FF
