:100000000C9434000C9451000C9451000C94C201D7
:100010000C9451000C9451000C9451000C9451001C
:100020000C9451000C9451000C9451000C9451000C
:100030000C9451000C9451000C9451000C945100FC
:100040000C9451000C9451000C9451000C945100EC
:100050000C9451000C9451000C9451000C945100DC
:100060000C9451000C94510011241FBECFEFD8E026
:10007000DEBFCDBF11E0A0E0B1E0E2ECFBE002C0EA
:1000800005900D92A032B107D9F721E0A0E2B1E0CE
:1000900001C01D92A033B207E1F70E94D0020C9478
:1000A000DF050C9400001F93CF93DF93EC010E94B7
:1000B00055010E947F01883049F00E947F018A83A8
:1000C00089838883DF91CF911F91089580ED0E94ED
:1000D000610180E00E9461010E947F010E945D0138
:1000E0000E94550181ED0E9461010E947F018034D0
:1000F00051F00E947F018A8389838883DF91CF91A9
:100100001F910C945D010E946B01182F0E947F01CA
:10011000803599F6812F8F770E940F0188830E9486
:100120006B010E940F0189830E946B018F730E94F3
:100130000F018A830E946B010E940F018B830E9432
:100140006B010E940F018C830E946B010E940F01C2
:100150008D830E9475010E940F018E83DF91CF91E4
:100160001F910C945D01CF93DF93EC010E94550128
:100170000E947F0180ED0E9461010E947F0180E06A
:100180000E9461010E947F0188810E9403018F7794
:100190000E94610189810E9403010E9461018A819C
:1001A0000E9403018F730E9461018B810E940301F1
:1001B0000E9461018C810E9403010E9461018D8176
:1001C0000E9403010E9461018E810E9403010E942E
:1001D0006101DF91CF910C945D0188E40E9444019C
:1001E0000E9455010E947F0180ED0E9461010E94E2
:1001F0007F0187E00E9461010E947F0180E00E94F0
:1002000061010C945D019DEC899F912D11249695BF
:100210009695969526E0929F800D11240895982F2B
:1002200092959F708F702AE0929F800D11240895FF
:10023000FB0120811F922F9321811F922F932281F6
:100240001F922F9324811F922F9325811F922F930A
:1002500026811F922F9321E031E03F932F939F93AC
:100260008F930E94DB028DB79EB740960FB6F8942D
:100270009EBF0FBE8DBF08958093B9006093B800F4
:1002800084E08093BC0008951092B9008093B80078
:1002900084E08093BC0008951092B90088E48093B4
:1002A000B80084E08093BC00089584EA8093BC0089
:1002B0008091BC0087FFFCCF089584E98093BC0047
:1002C00008958093BB0084E88093BC008091BC00BB
:1002D00087FFFCCF089584EC8093BC008091BC0024
:1002E00087FFFCCF8091BB00089584E88093BC0019
:1002F0008091BC0087FFFCCF8091BB000895809166
:10030000B900887F089522982098219AE8E6F0E0C5
:10031000808181608083EBE6F0E08081846080836F
:1003200078940895209124019091230181E029136C
:10033000089580E0089590912401809123019817F9
:1003400081F0E0912301F0E0EB5DFE4F8081209190
:10035000230130E02F5F3F4F277033272093230185
:10036000089580E008958093210180E88093200122
:1003700008952091200181E090E0222311F080E097
:1003800090E008951F920F920FB60F9211242F93B1
:100390003F934F938F939F93EF93FF931A9912C0BC
:1003A000189B07C09091000180912201892B8093B6
:1003B000220180910001813049F1809100018695F0
:1003C0008093000180912001882391F01A9910C038
:1003D00090912101809120018923B1F0299A809187
:1003E00020018130A9F18091200186958093200120
:1003F000FF91EF919F918F914F913F912F910F908E
:100400000FBE0F901F9018952998E9CF40912201B7
:10041000809124012091230190E001968770992713
:1004200030E082179307B9F0E0912401F0E0EB5D32
:10043000FE4F40838091240190E0019687709927B8
:100440008093240180E88093000110922201BACFAA
:1004500010922001CDCF8091230190E0019687700A
:10046000992780932301E0CF0E9483018AB188629B
:100470008AB98BB1877D8BB90C94ED001F93CF9314
:10048000DF93CDB7DEB727970FB6F894DEBF0FBE68
:10049000CDBF182F80E090E00E948E058B37F9F0D9
:1004A00085E0898385E28A8385E18B8382E08D8381
:1004B00084E08E8388E18F83CE0101960E94B30091
:1004C0006BE780E090E00E94960527960FB6F894BF
:1004D000DEBF0FBECDBFDF91CF911F9108951111E7
:1004E000DFCFF3CFCF93C0E00E9492018823E1F3E6
:1004F0000E949201882339F00E949B01C82F0E941C
:1005000092018111F9CFC83421F0CD3411F0C335F7
:1005100059F78C2FCF9108951F93CF93DF93CDB7C9
:10052000DEB727970FB6F894DEBF0FBECDBF182FEA
:100530000E94B901892BE1F35D9A1D3461F11335F5
:1005400029F11834F1F0CE0101960E9453008B81FD
:1005500080932D018A8180932E01898180932F01C0
:100560008FE39CE90197F1F700C000005D982796A2
:100570000FB6F894DEBF0FBECDBFDF91CF911F91B4
:10058000089580912D010E94B301DDCF80912F014C
:100590000E94B301D8CF80912E010E94B301D3CF26
:1005A0000E94340280E00E943E0278940E9472020F
:1005B0000E948C02FBCFAEE0B0E0E1EEF2E00C94E2
:1005C000B6050D891E8986E08C831A8309838FEF17
:1005D0009FE79E838D83AE01475E5F4F6F89788D65
:1005E000CE0101960E94FD02EF81F885E00FF11F18
:1005F00010822E96E4E00C94D205ABE0B0E0E3E08C
:10060000F3E00C94A8056C017B018A01FC011782C0
:100610001682838181FFCCC1CE0101963C01F60197
:100620009381F70193FD859193FF81917F01882349
:1006300009F4BAC1853239F493FD859193FF819114
:100640007F01853229F4B60190E00E94F404E7CFDF
:10065000912C212C312CFFE1F315D8F08B3279F05D
:1006600038F4803279F08332A1F4232D20611DC04B
:100670008D3261F0803369F4232D216016C0832D03
:100680008260382EE32DE4603E2E2AC0F32DF86000
:100690001DC037FC2DC020ED280F2A3040F08E32CF
:1006A000B9F436FC81C1232D2064322E19C036FEE8
:1006B00006C08AE0989E200D1124922E11C0EAE017
:1006C0002E9E200D1124222EF32DF0623F2E08C005
:1006D0008C3621F4832D8068382E02C0883641F490
:1006E000F70193FD859193FF81917F018111B3CF34
:1006F000982F9F7D9554933028F40C5F1F4F9FE3F4
:1007000099830DC0833631F0833771F0833509F05A
:1007100059C021C0F801808189830E5F1F4F882452
:100720008394912C530113C02801F2E04F0E511C09
:10073000F801A080B18036FE03C0692D70E002C0D0
:100740006FEF7FEFC5010E94E9044C018201F32D98
:10075000FF773F2E16C0280122E0420E511CF801FF
:10076000A080B18036FE03C0692D70E002C06FEF3B
:100770007FEFC5010E94DE044C01F32DF0683F2E8F
:10078000820133FC1BC0822D90E088169906B0F4DC
:10079000B60180E290E00E94F4042A94F4CFF501BF
:1007A00037FC859137FE81915F01B60190E00E9490
:1007B000F40421102A9421E0821A910881149104F2
:1007C00071F7E8C0843611F0893641F5F80137FE3B
:1007D00007C060817181828193810C5F1F4F08C0C7
:1007E00060817181072E000C880B990B0E5F1F4FE3
:1007F000F32DFF763F2E97FF09C090958095709559
:1008000061957F4F8F4F9F4FF0683F2E2AE030E079
:10081000A3010E943005882E861845C0853731F423
:10082000232D2F7EB22E2AE030E025C0932D997F14
:10083000B92E8F36C1F018F4883579F0B5C08037FD
:1008400019F0883721F0B0C0E92FE061BE2EB4FE68
:100850000DC0FB2DF460BF2E09C034FE0AC0292F45
:100860002660B22E06C028E030E005C020E130E06E
:1008700002C020E132E0F801B7FE07C0608171815B
:10088000828193810C5F1F4F06C06081718180E07F
:1008900090E00E5F1F4FA3010E943005882E86183E
:1008A000FB2DFF773F2E36FE0DC0232D2E7FA22E6F
:1008B000891458F434FE0BC032FC09C0832D8E7E9F
:1008C000A82E05C0B82CA32C03C0B82C01C0B92C8D
:1008D000A4FE0FC0FE01E80DF11D8081803321F4DC
:1008E0009A2D997EA92E09C0A2FE06C0B394B39496
:1008F00004C08A2D867809F0B394A3FC11C0A0FE31
:1009000006C0B21488F4280C922C9B180EC0B214A6
:1009100060F4B60180E290E00E94F404B394F7CF53
:10092000B21418F42B1802C0982C212CA4FE10C06D
:10093000B60180E390E00E94F404A2FE17C0A1FC7F
:1009400003C088E790E002C088E590E0B6010CC0E3
:100950008A2D867859F0A1FE02C08BE201C080E2A8
:10096000A7FC8DE2B60190E00E94F404891438F4EB
:10097000B60180E390E00E94F4049A94F7CF8A9441
:10098000F301E80DF11D8081B60190E00E94F404AE
:100990008110F5CF222009F442CEB60180E290E02A
:1009A0000E94F4042A94F6CFF6018681978102C052
:1009B0008FEF9FEF2B96E2E10C94C405FC010590AC
:1009C000615070400110D8F7809590958E0F9F1F51
:1009D0000895FC016150704001900110D8F7809596
:1009E00090958E0F9F1F08950F931F93CF93DF93C2
:1009F000FB01238121FD03C08FEF9FEF2CC022FF5D
:100A000016C046815781248135814217530744F42B
:100A1000A081B1819D012F5F3F4F318320838C9353
:100A2000268137812F5F3F4F3783268314C08B0188
:100A3000EC01FB010084F185E02D0995892BE1F69D
:100A4000D80116968D919C911797019617969C93B5
:100A50008E931697CE01DF91CF911F910F9108953C
:100A6000FA01AA27283051F1203181F1E8946F93DF
:100A70006E7F6E5F7F4F8F4F9F4FAF4FB1E03ED085
:100A8000B4E03CD0670F781F891F9A1FA11D680F23
:100A9000791F8A1F911DA11D6A0F711D811D911D56
:100AA000A11D20D009F468943F912AE0269F1124CB
:100AB0003019305D3193DEF6CF010895462F47702F
:100AC000405D4193B3E00FD0C9F7F6CF462F4F708A
:100AD000405D4A3318F0495D31FD4052419302D0E8
:100AE000A9F7EACFB4E0A69597958795779567958E
:100AF000BA95C9F700976105710508959B01AC018E
:100B00000A2E06945795479537952795BA95C9F7B4
:100B1000620F731F841F951FA01D0895F999FECFC2
:100B200092BD81BDF89A992780B50895262FF9992D
:100B3000FECF92BD81BDF89A019700B4021639F03C
:100B40001FBA20BD0FB6F894FA9AF99A0FBE08950D
:100B50002F923F924F925F926F927F928F929F92CD
:100B6000AF92BF92CF92DF92EF92FF920F931F93BB
:100B7000CF93DF93CDB7DEB7CA1BDB0B0FB6F8946C
:100B8000DEBF0FBECDBF09942A88398848885F84AC
:100B90006E847D848C849B84AA84B984C884DF801D
:100BA000EE80FD800C811B81AA81B981CE0FD11D01
:100BB0000FB6F894DEBF0FBECDBFED010895F894D7
:020BC000FFCF65
:100BC20080253032642F253032642F253032642064
:100BD200253032643A253032643A253032640000DE
:00000001FF
